{
  "contractName": "LIT",
  "abi": [
    {
      "constant": true,
      "inputs": [
        {
          "name": "",
          "type": "bytes20"
        }
      ],
      "name": "experiments",
      "outputs": [
        {
          "name": "id",
          "type": "bytes20"
        },
        {
          "name": "state",
          "type": "uint256"
        },
        {
          "name": "creator",
          "type": "address"
        },
        {
          "name": "homepage",
          "type": "string"
        },
        {
          "name": "relatedArtifact",
          "type": "string"
        },
        {
          "name": "input",
          "type": "string"
        },
        {
          "name": "measurement",
          "type": "string"
        },
        {
          "name": "code",
          "type": "string"
        }
      ],
      "payable": false,
      "stateMutability": "view",
      "type": "function"
    },
    {
      "constant": true,
      "inputs": [
        {
          "name": "",
          "type": "address"
        }
      ],
      "name": "userNonce",
      "outputs": [
        {
          "name": "",
          "type": "uint256"
        }
      ],
      "payable": false,
      "stateMutability": "view",
      "type": "function"
    },
    {
      "constant": true,
      "inputs": [
        {
          "name": "",
          "type": "address"
        },
        {
          "name": "",
          "type": "uint256"
        }
      ],
      "name": "userExperiments",
      "outputs": [
        {
          "name": "",
          "type": "bytes20"
        }
      ],
      "payable": false,
      "stateMutability": "view",
      "type": "function"
    },
    {
      "constant": true,
      "inputs": [
        {
          "name": "",
          "type": "uint256"
        }
      ],
      "name": "testSites",
      "outputs": [
        {
          "name": "",
          "type": "address"
        }
      ],
      "payable": false,
      "stateMutability": "view",
      "type": "function"
    },
    {
      "anonymous": false,
      "inputs": [
        {
          "indexed": false,
          "name": "expID",
          "type": "bytes20"
        }
      ],
      "name": "experimentSubmitted",
      "type": "event"
    },
    {
      "anonymous": false,
      "inputs": [
        {
          "indexed": false,
          "name": "expID",
          "type": "bytes20"
        }
      ],
      "name": "experimentAssigned",
      "type": "event"
    },
    {
      "anonymous": false,
      "inputs": [
        {
          "indexed": false,
          "name": "expID",
          "type": "bytes20"
        }
      ],
      "name": "experimentCompleted",
      "type": "event"
    },
    {
      "constant": false,
      "inputs": [
        {
          "name": "_capability",
          "type": "string"
        }
      ],
      "name": "registerTestSite",
      "outputs": [],
      "payable": false,
      "stateMutability": "nonpayable",
      "type": "function"
    },
    {
      "constant": true,
      "inputs": [
        {
          "name": "_expID",
          "type": "bytes20"
        }
      ],
      "name": "getNumberOfResults",
      "outputs": [
        {
          "name": "",
          "type": "uint256"
        }
      ],
      "payable": false,
      "stateMutability": "view",
      "type": "function"
    },
    {
      "constant": true,
      "inputs": [
        {
          "name": "_expID",
          "type": "bytes20"
        },
        {
          "name": "index",
          "type": "uint256"
        }
      ],
      "name": "getExperimentResult",
      "outputs": [
        {
          "name": "",
          "type": "address"
        },
        {
          "name": "",
          "type": "string"
        }
      ],
      "payable": false,
      "stateMutability": "view",
      "type": "function"
    },
    {
      "constant": false,
      "inputs": [
        {
          "name": "_homepage",
          "type": "string"
        },
        {
          "name": "_relatedArtifact",
          "type": "string"
        },
        {
          "name": "_input",
          "type": "string"
        },
        {
          "name": "_measurement",
          "type": "string"
        },
        {
          "name": "_code",
          "type": "string"
        }
      ],
      "name": "createExperiment",
      "outputs": [
        {
          "name": "expID",
          "type": "bytes20"
        }
      ],
      "payable": false,
      "stateMutability": "nonpayable",
      "type": "function"
    },
    {
      "constant": false,
      "inputs": [
        {
          "name": "_expID",
          "type": "bytes20"
        }
      ],
      "name": "conductExperiment",
      "outputs": [],
      "payable": false,
      "stateMutability": "nonpayable",
      "type": "function"
    },
    {
      "constant": false,
      "inputs": [
        {
          "name": "_expID",
          "type": "bytes20"
        },
        {
          "name": "_result",
          "type": "string"
        }
      ],
      "name": "updateExperiment",
      "outputs": [],
      "payable": false,
      "stateMutability": "nonpayable",
      "type": "function"
    }
  ],
  "bytecode": "0x608060405234801561001057600080fd5b50611bd9806100206000396000f3fe6080604052600436106100a4576000357c0100000000000000000000000000000000000000000000000000000000900463ffffffff16806306c2fab6146100a95780630a5015a81461037b5780632e04b8e7146103c55780633fafc9991461042a5780636a17ed321461050b578063caba5cdf14610569578063ccc7c5fc14610631578063d187001814610731578063d65a6cd3146107be578063ef49902414610839575b600080fd5b3480156100b557600080fd5b506100f1600480360360208110156100cc57600080fd5b8101908080356bffffffffffffffffffffffff19169060200190929190505050610b8f565b60405180896bffffffffffffffffffffffff19166bffffffffffffffffffffffff191681526020018881526020018773ffffffffffffffffffffffffffffffffffffffff1673ffffffffffffffffffffffffffffffffffffffff168152602001806020018060200180602001806020018060200186810386528b818151815260200191508051906020019080838360005b8381101561019d578082015181840152602081019050610182565b50505050905090810190601f1680156101ca5780820380516001836020036101000a031916815260200191505b5086810385528a818151815260200191508051906020019080838360005b838110156102035780820151818401526020810190506101e8565b50505050905090810190601f1680156102305780820380516001836020036101000a031916815260200191505b50868103845289818151815260200191508051906020019080838360005b8381101561026957808201518184015260208101905061024e565b50505050905090810190601f1680156102965780820380516001836020036101000a031916815260200191505b50868103835288818151815260200191508051906020019080838360005b838110156102cf5780820151818401526020810190506102b4565b50505050905090810190601f1680156102fc5780820380516001836020036101000a031916815260200191505b50868103825287818151815260200191508051906020019080838360005b8381101561033557808201518184015260208101905061031a565b50505050905090810190601f1680156103625780820380516001836020036101000a031916815260200191505b509d505050505050505050505050505060405180910390f35b34801561038757600080fd5b506103c36004803603602081101561039e57600080fd5b8101908080356bffffffffffffffffffffffff19169060200190929190505050610f08565b005b3480156103d157600080fd5b50610414600480360360208110156103e857600080fd5b81019080803573ffffffffffffffffffffffffffffffffffffffff16906020019092919050505061120f565b6040518082815260200191505060405180910390f35b34801561043657600080fd5b506105096004803603604081101561044d57600080fd5b8101908080356bffffffffffffffffffffffff191690602001909291908035906020019064010000000081111561048357600080fd5b82018360208201111561049557600080fd5b803590602001918460018302840111640100000000831117156104b757600080fd5b91908080601f016020809104026020016040519081016040528093929190818152602001838380828437600081840152601f19601f820116905080830192505050505050509192919290505050611227565b005b34801561051757600080fd5b506105536004803603602081101561052e57600080fd5b8101908080356bffffffffffffffffffffffff191690602001909291905050506114b6565b6040518082815260200191505060405180910390f35b34801561057557600080fd5b5061062f6004803603602081101561058c57600080fd5b81019080803590602001906401000000008111156105a957600080fd5b8201836020820111156105bb57600080fd5b803590602001918460018302840111640100000000831117156105dd57600080fd5b91908080601f016020809104026020016040519081016040528093929190818152602001838380828437600081840152601f19601f8201169050808301925050505050505091929192905050506114f3565b005b34801561063d57600080fd5b506106836004803603604081101561065457600080fd5b8101908080356bffffffffffffffffffffffff191690602001909291908035906020019092919050505061155c565b604051808373ffffffffffffffffffffffffffffffffffffffff1673ffffffffffffffffffffffffffffffffffffffff16815260200180602001828103825283818151815260200191508051906020019080838360005b838110156106f55780820151818401526020810190506106da565b50505050905090810190601f1680156107225780820380516001836020036101000a031916815260200191505b50935050505060405180910390f35b34801561073d57600080fd5b5061078a6004803603604081101561075457600080fd5b81019080803573ffffffffffffffffffffffffffffffffffffffff169060200190929190803590602001909291905050506116c4565b60405180826bffffffffffffffffffffffff19166bffffffffffffffffffffffff1916815260200191505060405180910390f35b3480156107ca57600080fd5b506107f7600480360360208110156107e157600080fd5b810190808035906020019092919050505061170a565b604051808273ffffffffffffffffffffffffffffffffffffffff1673ffffffffffffffffffffffffffffffffffffffff16815260200191505060405180910390f35b34801561084557600080fd5b50610b5b600480360360a081101561085c57600080fd5b810190808035906020019064010000000081111561087957600080fd5b82018360208201111561088b57600080fd5b803590602001918460018302840111640100000000831117156108ad57600080fd5b91908080601f016020809104026020016040519081016040528093929190818152602001838380828437600081840152601f19601f8201169050808301925050505050505091929192908035906020019064010000000081111561091057600080fd5b82018360208201111561092257600080fd5b8035906020019184600183028401116401000000008311171561094457600080fd5b91908080601f016020809104026020016040519081016040528093929190818152602001838380828437600081840152601f19601f820116905080830192505050505050509192919290803590602001906401000000008111156109a757600080fd5b8201836020820111156109b957600080fd5b803590602001918460018302840111640100000000831117156109db57600080fd5b91908080601f016020809104026020016040519081016040528093929190818152602001838380828437600081840152601f19601f82011690508083019250505050505050919291929080359060200190640100000000811115610a3e57600080fd5b820183602082011115610a5057600080fd5b80359060200191846001830284011164010000000083111715610a7257600080fd5b91908080601f016020809104026020016040519081016040528093929190818152602001838380828437600081840152601f19601f82011690508083019250505050505050919291929080359060200190640100000000811115610ad557600080fd5b820183602082011115610ae757600080fd5b80359060200191846001830284011164010000000083111715610b0957600080fd5b91908080601f016020809104026020016040519081016040528093929190818152602001838380828437600081840152601f19601f820116905080830192505050505050509192919290505050611748565b60405180826bffffffffffffffffffffffff19166bffffffffffffffffffffffff1916815260200191505060405180910390f35b60026020528060005260406000206000915090508060000160009054906101000a90046c0100000000000000000000000002908060010154908060020160009054906101000a900473ffffffffffffffffffffffffffffffffffffffff1690806003018054600181600116156101000203166002900480601f016020809104026020016040519081016040528092919081815260200182805460018160011615610100020316600290048015610c865780601f10610c5b57610100808354040283529160200191610c86565b820191906000526020600020905b815481529060010190602001808311610c6957829003601f168201915b505050505090806004018054600181600116156101000203166002900480601f016020809104026020016040519081016040528092919081815260200182805460018160011615610100020316600290048015610d245780601f10610cf957610100808354040283529160200191610d24565b820191906000526020600020905b815481529060010190602001808311610d0757829003601f168201915b505050505090806005018054600181600116156101000203166002900480601f016020809104026020016040519081016040528092919081815260200182805460018160011615610100020316600290048015610dc25780601f10610d9757610100808354040283529160200191610dc2565b820191906000526020600020905b815481529060010190602001808311610da557829003601f168201915b505050505090806006018054600181600116156101000203166002900480601f016020809104026020016040519081016040528092919081815260200182805460018160011615610100020316600290048015610e605780601f10610e3557610100808354040283529160200191610e60565b820191906000526020600020905b815481529060010190602001808311610e4357829003601f168201915b505050505090806007018054600181600116156101000203166002900480601f016020809104026020016040519081016040528092919081815260200182805460018160011615610100020316600290048015610efe5780601f10610ed357610100808354040283529160200191610efe565b820191906000526020600020905b815481529060010190602001808311610ee157829003601f168201915b5050505050905088565b60006c010000000000000000000000000260026000836bffffffffffffffffffffffff19166bffffffffffffffffffffffff1916815260200190815260200160002060000160009054906101000a90046c01000000000000000000000000026bffffffffffffffffffffffff191614151515611012576040517f08c379a00000000000000000000000000000000000000000000000000000000081526004018080602001828103825260288152602001807f54686520737065636966696564206578706572696d656e7420646f6573206e6f81526020017f742065786973742e00000000000000000000000000000000000000000000000081525060400191505060405180910390fd5b6060600180548060200260200160405190810160405280929190818152602001828054801561109657602002820191906000526020600020905b8160009054906101000a900473ffffffffffffffffffffffffffffffffffffffff1673ffffffffffffffffffffffffffffffffffffffff168152602001906001019080831161104c575b5050505050905060008090505b815181101561117b57600082828151811015156110bc57fe5b9060200190602002015190508073ffffffffffffffffffffffffffffffffffffffff16635a4c1bf9856040518263ffffffff167c010000000000000000000000000000000000000000000000000000000002815260040180826bffffffffffffffffffffffff19166bffffffffffffffffffffffff19168152602001915050600060405180830381600087803b15801561115557600080fd5b505af1158015611169573d6000803e3d6000fd5b505050505080806001019150506110a3565b50600160026000846bffffffffffffffffffffffff19166bffffffffffffffffffffffff19168152602001908152602001600020600101819055507fd37bf4c6ff16181e63330b7ab02e789b60f8874a16f76a8384e436a2b67c9f048260405180826bffffffffffffffffffffffff19166bffffffffffffffffffffffff1916815260200191505060405180910390a15050565b60036020528060005260406000206000915090505481565b60006c010000000000000000000000000260026000846bffffffffffffffffffffffff19166bffffffffffffffffffffffff1916815260200190815260200160002060000160009054906101000a90046c01000000000000000000000000026bffffffffffffffffffffffff191614151515611331576040517f08c379a00000000000000000000000000000000000000000000000000000000081526004018080602001828103825260288152602001807f54686520737065636966696564206578706572696d656e7420646f6573206e6f81526020017f742065786973742e00000000000000000000000000000000000000000000000081525060400191505060405180910390fd5b60003390506002806000856bffffffffffffffffffffffff19166bffffffffffffffffffffffff1916815260200190815260200160002060010181905550600080846bffffffffffffffffffffffff19166bffffffffffffffffffffffff1916815260200190815260200160002060408051908101604052808373ffffffffffffffffffffffffffffffffffffffff168152602001848152509080600181540180825580915050906001820390600052602060002090600202016000909192909190915060008201518160000160006101000a81548173ffffffffffffffffffffffffffffffffffffffff021916908373ffffffffffffffffffffffffffffffffffffffff1602179055506020820151816001019080519060200190611458929190611b08565b505050507f7d4d22b0c1ac2d7fa12dd52a33e0d6f628a20cd57ec455553d5dba2a3f7ef25a8360405180826bffffffffffffffffffffffff19166bffffffffffffffffffffffff1916815260200191505060405180910390a1505050565b6000806000836bffffffffffffffffffffffff19166bffffffffffffffffffffffff19168152602001908152602001600020805490509050919050565b60013390806001815401808255809150509060018203906000526020600020016000909192909190916101000a81548173ffffffffffffffffffffffffffffffffffffffff021916908373ffffffffffffffffffffffffffffffffffffffff1602179055505050565b60006060600080856bffffffffffffffffffffffff19166bffffffffffffffffffffffff191681526020019081526020016000208381548110151561159d57fe5b906000526020600020906002020160000160009054906101000a900473ffffffffffffffffffffffffffffffffffffffff16600080866bffffffffffffffffffffffff19166bffffffffffffffffffffffff191681526020019081526020016000208481548110151561160c57fe5b9060005260206000209060020201600101808054600181600116156101000203166002900480601f0160208091040260200160405190810160405280929190818152602001828054600181600116156101000203166002900480156116b25780601f10611687576101008083540402835291602001916116b2565b820191906000526020600020905b81548152906001019060200180831161169557829003601f168201915b50505050509050915091509250929050565b6004602052816000526040600020818154811015156116df57fe5b906000526020600020016000915091509054906101000a90046c010000000000000000000000000281565b60018181548110151561171957fe5b906000526020600020016000915054906101000a900473ffffffffffffffffffffffffffffffffffffffff1681565b60008033905080600360008373ffffffffffffffffffffffffffffffffffffffff1673ffffffffffffffffffffffffffffffffffffffff16815260200190815260200160002054604051602001808373ffffffffffffffffffffffffffffffffffffffff1673ffffffffffffffffffffffffffffffffffffffff166c0100000000000000000000000002815260140182815260200192505050604051602081830303815290604052805190602001209150600360008273ffffffffffffffffffffffffffffffffffffffff1673ffffffffffffffffffffffffffffffffffffffff16815260200190815260200160002060008154809291906001019190505550600460008273ffffffffffffffffffffffffffffffffffffffff1673ffffffffffffffffffffffffffffffffffffffff1681526020019081526020016000208290806001815401808255809150509060018203906000526020600020016000909192909190916101000a81548173ffffffffffffffffffffffffffffffffffffffff02191690836c01000000000000000000000000900402179055505061010060405190810160405280836bffffffffffffffffffffffff19168152602001600081526020018273ffffffffffffffffffffffffffffffffffffffff1681526020018881526020018781526020018681526020018581526020018481525060026000846bffffffffffffffffffffffff19166bffffffffffffffffffffffff1916815260200190815260200160002060008201518160000160006101000a81548173ffffffffffffffffffffffffffffffffffffffff02191690836c01000000000000000000000000900402179055506020820151816001015560408201518160020160006101000a81548173ffffffffffffffffffffffffffffffffffffffff021916908373ffffffffffffffffffffffffffffffffffffffff1602179055506060820151816003019080519060200190611a25929190611b08565b506080820151816004019080519060200190611a42929190611b08565b5060a0820151816005019080519060200190611a5f929190611b08565b5060c0820151816006019080519060200190611a7c929190611b08565b5060e0820151816007019080519060200190611a99929190611b08565b509050507f97ee6c85d59f1e488a9b7b56e8a61f1174c25e83d56dd48aa1aa0e27aeba383a8260405180826bffffffffffffffffffffffff19166bffffffffffffffffffffffff1916815260200191505060405180910390a1611afb82610f08565b8191505095945050505050565b828054600181600116156101000203166002900490600052602060002090601f016020900481019282601f10611b4957805160ff1916838001178555611b77565b82800160010185558215611b77579182015b82811115611b76578251825591602001919060010190611b5b565b5b509050611b849190611b88565b5090565b611baa91905b80821115611ba6576000816000905550600101611b8e565b5090565b9056fea165627a7a72305820a094dd8ad6d60ba22436905229bf4dbda5497f2eaf006e961fbc0e61813b38520029",
  "source": "pragma solidity ^0.5.0;\n\ncontract TestSite {\n    // Address of LIT core for registration and call back\n    address addrLIT;\n    LIT lit;\n    // Address of the owner of the testsite\n    address addrOwner;\n    // This string describe the capability of a testsite. Will update in the future with more description\n    string capability;\n    \n    // This event is for interacting with the client library on the infrastructure\n    event experimentStaged(bytes20 expID, string code);\n    \n    constructor (string memory _capability, address _addrLIT) public {\n        addrLIT = _addrLIT;\n        lit = LIT(addrLIT);\n        capability = _capability;\n        addrOwner = msg.sender;\n        \n        // Register with LIT\n        lit.registerTestSite(_capability);\n    }\n    \n    function assignExperiment(bytes20 _expID) public{\n        // Get a reference of the LIT to access the experiment record\n        // (bytes20 id, address creator, string memory input, string memory measurement, string memory code) = lit.experiments(_expID);\n        (, , , , , , , string memory code) = lit.experiments(_expID);\n        // string memory code = \"busy box\";\n        // emit experimentStaged(_expID, code);\n        emit experimentStaged(_expID, code);\n    }\n    \n    function updateExperimentResult(bytes20 _expID, string memory _result) public {\n        lit.updateExperiment(_expID, _result);\n    }\n}\n\ncontract LIT {\n    // This struct represents an experiment to be conducted by LIT\n    struct Experiment {\n        bytes20 id;\n        uint state;\n        address creator;\n        string homepage;\n        string relatedArtifact;\n        string input;\n        string measurement;\n        string code;\n    }\n\n    struct ExperimentResult {\n        address respondedTestSite;\n        string result;\n    }\n    \n    mapping(bytes20 => ExperimentResult[]) results;\n\n    // Mapping between capabilities and relevant testsites\n    // TEMPORARY NOT USING THIS ONE IN VERSION 0.1 DUE TO SECURITY ISSUE WITH INLINE ASSEMBLY\n    // mapping (bytes32 => address[]) public capabilityTestSites;\n\n    address[] public testSites;\n\n    // Mapping between experiment and their ID\n    mapping (bytes20 => Experiment) public experiments;\n    // Mapping between address of LIT users and a nonce for creating experiment ID\n    // If nonce is 0, it means that this user has not started an experiment before\n    mapping (address => uint) public userNonce;\n\n    mapping(address => bytes20[]) public userExperiments;\n\n    event experimentSubmitted(\n        bytes20 expID\n    );\n    event experimentAssigned(\n        bytes20 expID\n    );\n    event experimentCompleted(\n        bytes20 expID\n    );\n    \n    enum ExperimentType {Created, Submitted, Assigned, Completed}\n\n    function registerTestSite(string memory _capability) public {\n        // capabilityTestSites[stringToBytes32(_capability)].push(msg.sender);\n        testSites.push(msg.sender);\n    }\n    \n    function getNumberOfResults(bytes20 _expID) public view returns (uint) {\n        return results[_expID].length;\n    }\n    \n    function getExperimentResult(bytes20 _expID, uint index) public view returns (address, string memory) {\n        return (results[_expID][index].respondedTestSite, results[_expID][index].result);\n    }\n    \n    function createExperiment(string memory _homepage, string memory _relatedArtifact, string memory _input, string memory _measurement, string memory _code) public returns(bytes20 expID) {\n        address userAddr = msg.sender;\n        \n        //Create expID by hashing the sender address with a nonce\n        expID = bytes20(keccak256(abi.encodePacked(userAddr, userNonce[userAddr])));\n        userNonce[userAddr]++;\n        userExperiments[userAddr].push(expID);\n        \n        // Create and store an experiment struct\n        experiments[expID] = Experiment(expID, 0, userAddr, _homepage, _relatedArtifact, _input, _measurement, _code);\n        \n        // Emit an event to acknowledge that the experiemnt has been submitted.\n        emit experimentSubmitted(expID);\n        \n        // FOR SIMPLICITY, VERSION 0.1 CALL CONDUCT EXPERIMENT DIRECTLY.\n        conductExperiment(expID);\n        // Return the expID;\n        return expID;\n    }\n    \n    function conductExperiment(bytes20 _expID) public {\n        // Check if the experiment ID exist\n        require(experiments[_expID].id != 0, \"The specified experiment does not exist.\");\n        // Check if the caller is the owner of the experiment\n        // require(msg.sender == experiments[_expID].creator, \"Only the creator of an experiment can start it.\");\n        \n        // Find test sites that can satisfy the experiment input and measurement requirements\n        // TEMPORARY DISABLE MAPPING LOOK UP DUE TO SECURITY ISSUE WITH INLINE ASSEMBLY\n        // address[] memory relevantSites = capabilityTestSites[stringToBytes32(experiment.measurement)];\n\n        // Assign the experiment to all registered testsites for now.\n        address[] memory relevantSites = testSites;\n        \n        // For each relevant test site\n        for (uint i = 0; i < relevantSites.length; i++) {\n            // Call assign experiment from testSite\n            TestSite ts = TestSite(relevantSites[i]);\n            ts.assignExperiment(_expID);\n        }\n        \n        // Update the state of experiment\n        experiments[_expID].state = 1;\n        emit experimentAssigned(_expID);\n    }\n    \n    // FIXME:\n    // Add support for other experiment outcomes. \n    function updateExperiment(bytes20 _expID, string memory _result) public {\n        // VERSION 0.1 DOES NOT HANDLE EXPERIMENT FAILURE. CODE WILL BE UPDATED WITH ALTERNATIVE SCENARIOS IN LATER VERSIONS\n\n        // Check if the expID exist\n        require(experiments[_expID].id != 0, \"The specified experiment does not exist.\");\n        \n        // Check if the caller is the assigned testsite\n        // TBA\n        \n        // Update the experiment\n        address testSiteAddr = msg.sender;\n        experiments[_expID].state = 2;\n        results[_expID].push(ExperimentResult(testSiteAddr, _result));\n        \n        emit experimentCompleted(_expID);\n    }\n    \n    \n    // Utility functions\n    // STOP USING THIS FUNCTION DUE TO INLINE ASSEMPLY ISSUE\n    // function stringToBytes32(string memory source) private returns (bytes32 result) {\n    //     bytes memory tempEmptyStringTest = bytes(source);\n    //     if (tempEmptyStringTest.length == 0) {\n    //         return 0x0;\n    //     }\n    \n    //     assembly {\n    //         result := mload(add(source, 32))\n    //     }\n    // }\n}",
  "sourcePath": "/Users/trannguyen/Documents/CodeProjects/LIT/LIT_core/contracts/TestSite.sol",
  "compiler": {
    "name": "solc",
    "version": "0.5.0+commit.1d4f565a.Emscripten.clang"
  },
  "schemaVersion": "3.0.9",
  "updatedAt": "2019-07-05T02:37:51.250Z",
  "devdoc": {
    "methods": {}
  },
  "userdoc": {
    "methods": {}
  }
}