{
  "contractName": "LIT",
  "abi": [
    {
      "constant": true,
      "inputs": [
        {
          "name": "",
          "type": "bytes20"
        }
      ],
      "name": "experiments",
      "outputs": [
        {
          "name": "id",
          "type": "bytes20"
        },
        {
          "name": "creator",
          "type": "address"
        },
        {
          "name": "input",
          "type": "string"
        },
        {
          "name": "measurement",
          "type": "string"
        },
        {
          "name": "code",
          "type": "string"
        }
      ],
      "payable": false,
      "stateMutability": "view",
      "type": "function"
    },
    {
      "constant": true,
      "inputs": [
        {
          "name": "",
          "type": "address"
        }
      ],
      "name": "userNonce",
      "outputs": [
        {
          "name": "",
          "type": "uint256"
        }
      ],
      "payable": false,
      "stateMutability": "view",
      "type": "function"
    },
    {
      "constant": true,
      "inputs": [
        {
          "name": "",
          "type": "uint256"
        }
      ],
      "name": "testSites",
      "outputs": [
        {
          "name": "",
          "type": "address"
        }
      ],
      "payable": false,
      "stateMutability": "view",
      "type": "function"
    },
    {
      "anonymous": false,
      "inputs": [
        {
          "indexed": false,
          "name": "expID",
          "type": "bytes20"
        }
      ],
      "name": "experimentSubmitted",
      "type": "event"
    },
    {
      "anonymous": false,
      "inputs": [
        {
          "indexed": false,
          "name": "expID",
          "type": "bytes20"
        }
      ],
      "name": "experimentAssigned",
      "type": "event"
    },
    {
      "anonymous": false,
      "inputs": [
        {
          "indexed": false,
          "name": "expID",
          "type": "bytes20"
        }
      ],
      "name": "experimentCompleted",
      "type": "event"
    },
    {
      "constant": false,
      "inputs": [
        {
          "name": "_capability",
          "type": "string"
        }
      ],
      "name": "registerTestSite",
      "outputs": [],
      "payable": false,
      "stateMutability": "nonpayable",
      "type": "function"
    },
    {
      "constant": false,
      "inputs": [
        {
          "name": "_input",
          "type": "string"
        },
        {
          "name": "_measurement",
          "type": "string"
        },
        {
          "name": "_code",
          "type": "string"
        }
      ],
      "name": "createExperiment",
      "outputs": [
        {
          "name": "expID",
          "type": "bytes20"
        }
      ],
      "payable": false,
      "stateMutability": "nonpayable",
      "type": "function"
    },
    {
      "constant": false,
      "inputs": [
        {
          "name": "_expID",
          "type": "bytes20"
        }
      ],
      "name": "conductExperiment",
      "outputs": [],
      "payable": false,
      "stateMutability": "nonpayable",
      "type": "function"
    },
    {
      "constant": false,
      "inputs": [
        {
          "name": "expID",
          "type": "bytes20"
        },
        {
          "name": "_result",
          "type": "string"
        }
      ],
      "name": "updateExperiment",
      "outputs": [],
      "payable": false,
      "stateMutability": "nonpayable",
      "type": "function"
    }
  ],
  "bytecode": "0x608060405234801561001057600080fd5b50611509806100206000396000f3fe608060405260043610610083576000357c0100000000000000000000000000000000000000000000000000000000900463ffffffff16806306c2fab6146100885780630a5015a81461027b5780632e04b8e7146102c55780633fafc9991461032a5780637174fd841461040b578063caba5cdf14610633578063d65a6cd3146106fb575b600080fd5b34801561009457600080fd5b506100d0600480360360208110156100ab57600080fd5b8101908080356bffffffffffffffffffffffff19169060200190929190505050610776565b60405180866bffffffffffffffffffffffff19166bffffffffffffffffffffffff191681526020018573ffffffffffffffffffffffffffffffffffffffff1673ffffffffffffffffffffffffffffffffffffffff168152602001806020018060200180602001848103845287818151815260200191508051906020019080838360005b8381101561016e578082015181840152602081019050610153565b50505050905090810190601f16801561019b5780820380516001836020036101000a031916815260200191505b50848103835286818151815260200191508051906020019080838360005b838110156101d45780820151818401526020810190506101b9565b50505050905090810190601f1680156102015780820380516001836020036101000a031916815260200191505b50848103825285818151815260200191508051906020019080838360005b8381101561023a57808201518184015260208101905061021f565b50505050905090810190601f1680156102675780820380516001836020036101000a031916815260200191505b509850505050505050505060405180910390f35b34801561028757600080fd5b506102c36004803603602081101561029e57600080fd5b8101908080356bffffffffffffffffffffffff191690602001909291905050506109ad565b005b3480156102d157600080fd5b50610314600480360360208110156102e857600080fd5b81019080803573ffffffffffffffffffffffffffffffffffffffff169060200190929190505050610e4a565b6040518082815260200191505060405180910390f35b34801561033657600080fd5b506104096004803603604081101561034d57600080fd5b8101908080356bffffffffffffffffffffffff191690602001909291908035906020019064010000000081111561038357600080fd5b82018360208201111561039557600080fd5b803590602001918460018302840111640100000000831117156103b757600080fd5b91908080601f016020809104026020016040519081016040528093929190818152602001838380828437600081840152601f19601f820116905080830192505050505050509192919290505050610e62565b005b34801561041757600080fd5b506105ff6004803603606081101561042e57600080fd5b810190808035906020019064010000000081111561044b57600080fd5b82018360208201111561045d57600080fd5b8035906020019184600183028401116401000000008311171561047f57600080fd5b91908080601f016020809104026020016040519081016040528093929190818152602001838380828437600081840152601f19601f820116905080830192505050505050509192919290803590602001906401000000008111156104e257600080fd5b8201836020820111156104f457600080fd5b8035906020019184600183028401116401000000008311171561051657600080fd5b91908080601f016020809104026020016040519081016040528093929190818152602001838380828437600081840152601f19601f8201169050808301925050505050505091929192908035906020019064010000000081111561057957600080fd5b82018360208201111561058b57600080fd5b803590602001918460018302840111640100000000831117156105ad57600080fd5b91908080601f016020809104026020016040519081016040528093929190818152602001838380828437600081840152601f19601f820116905080830192505050505050509192919290505050611051565b60405180826bffffffffffffffffffffffff19166bffffffffffffffffffffffff1916815260200191505060405180910390f35b34801561063f57600080fd5b506106f96004803603602081101561065657600080fd5b810190808035906020019064010000000081111561067357600080fd5b82018360208201111561068557600080fd5b803590602001918460018302840111640100000000831117156106a757600080fd5b91908080601f016020809104026020016040519081016040528093929190818152602001838380828437600081840152601f19601f820116905080830192505050505050509192919290505050611311565b005b34801561070757600080fd5b506107346004803603602081101561071e57600080fd5b810190808035906020019092919050505061137a565b604051808273ffffffffffffffffffffffffffffffffffffffff1673ffffffffffffffffffffffffffffffffffffffff16815260200191505060405180910390f35b60016020528060005260406000206000915090508060000160009054906101000a90046c0100000000000000000000000002908060010160009054906101000a900473ffffffffffffffffffffffffffffffffffffffff1690806002018054600181600116156101000203166002900480601f0160208091040260200160405190810160405280929190818152602001828054600181600116156101000203166002900480156108675780601f1061083c57610100808354040283529160200191610867565b820191906000526020600020905b81548152906001019060200180831161084a57829003601f168201915b505050505090806003018054600181600116156101000203166002900480601f0160208091040260200160405190810160405280929190818152602001828054600181600116156101000203166002900480156109055780601f106108da57610100808354040283529160200191610905565b820191906000526020600020905b8154815290600101906020018083116108e857829003601f168201915b505050505090806004018054600181600116156101000203166002900480601f0160208091040260200160405190810160405280929190818152602001828054600181600116156101000203166002900480156109a35780601f10610978576101008083540402835291602001916109a3565b820191906000526020600020905b81548152906001019060200180831161098657829003601f168201915b5050505050905085565b60006c010000000000000000000000000260016000836bffffffffffffffffffffffff19166bffffffffffffffffffffffff1916815260200190815260200160002060000160009054906101000a90046c01000000000000000000000000026bffffffffffffffffffffffff191614151515610ab7576040517f08c379a00000000000000000000000000000000000000000000000000000000081526004018080602001828103825260288152602001807f54686520737065636966696564206578706572696d656e7420646f6573206e6f81526020017f742065786973742e00000000000000000000000000000000000000000000000081525060400191505060405180910390fd5b60016000826bffffffffffffffffffffffff19166bffffffffffffffffffffffff1916815260200190815260200160002060010160009054906101000a900473ffffffffffffffffffffffffffffffffffffffff1673ffffffffffffffffffffffffffffffffffffffff163373ffffffffffffffffffffffffffffffffffffffff16141515610bd4576040517f08c379a000000000000000000000000000000000000000000000000000000000815260040180806020018281038252602f8152602001807f4f6e6c79207468652063726561746f72206f6620616e206578706572696d656e81526020017f742063616e2073746172742069742e000000000000000000000000000000000081525060400191505060405180910390fd5b600060016000836bffffffffffffffffffffffff19166bffffffffffffffffffffffff19168152602001908152602001600020905060606000805480602002602001604051908101604052809291908181526020018280548015610c8d57602002820191906000526020600020905b8160009054906101000a900473ffffffffffffffffffffffffffffffffffffffff1673ffffffffffffffffffffffffffffffffffffffff1681526020019060010190808311610c43575b5050505050905060008090505b8151811015610def5760206040519081016040528060008152508360050160008484815181101515610cc857fe5b9060200190602002015173ffffffffffffffffffffffffffffffffffffffff1673ffffffffffffffffffffffffffffffffffffffff1681526020019081526020016000209080519060200190610d1f9291906113b8565b5060008282815181101515610d3057fe5b9060200190602002015190508073ffffffffffffffffffffffffffffffffffffffff16635a4c1bf9866040518263ffffffff167c010000000000000000000000000000000000000000000000000000000002815260040180826bffffffffffffffffffffffff19166bffffffffffffffffffffffff19168152602001915050600060405180830381600087803b158015610dc957600080fd5b505af1158015610ddd573d6000803e3d6000fd5b50505050508080600101915050610c9a565b507fd37bf4c6ff16181e63330b7ab02e789b60f8874a16f76a8384e436a2b67c9f048360405180826bffffffffffffffffffffffff19166bffffffffffffffffffffffff1916815260200191505060405180910390a1505050565b60026020528060005260406000206000915090505481565b60006c010000000000000000000000000260016000846bffffffffffffffffffffffff19166bffffffffffffffffffffffff1916815260200190815260200160002060000160009054906101000a90046c01000000000000000000000000026bffffffffffffffffffffffff191614151515610f6c576040517f08c379a00000000000000000000000000000000000000000000000000000000081526004018080602001828103825260288152602001807f54686520737065636966696564206578706572696d656e7420646f6573206e6f81526020017f742065786973742e00000000000000000000000000000000000000000000000081525060400191505060405180910390fd5b60003390508160016000856bffffffffffffffffffffffff19166bffffffffffffffffffffffff1916815260200190815260200160002060050160008373ffffffffffffffffffffffffffffffffffffffff1673ffffffffffffffffffffffffffffffffffffffff1681526020019081526020016000209080519060200190610ff69291906113b8565b507f7d4d22b0c1ac2d7fa12dd52a33e0d6f628a20cd57ec455553d5dba2a3f7ef25a8360405180826bffffffffffffffffffffffff19166bffffffffffffffffffffffff1916815260200191505060405180910390a1505050565b60008033905080600260008373ffffffffffffffffffffffffffffffffffffffff1673ffffffffffffffffffffffffffffffffffffffff16815260200190815260200160002054604051602001808373ffffffffffffffffffffffffffffffffffffffff1673ffffffffffffffffffffffffffffffffffffffff166c0100000000000000000000000002815260140182815260200192505050604051602081830303815290604052805190602001209150600260008273ffffffffffffffffffffffffffffffffffffffff1673ffffffffffffffffffffffffffffffffffffffff1681526020019081526020016000206000815480929190600101919050555060a060405190810160405280836bffffffffffffffffffffffff191681526020018273ffffffffffffffffffffffffffffffffffffffff1681526020018681526020018581526020018481525060016000846bffffffffffffffffffffffff19166bffffffffffffffffffffffff1916815260200190815260200160002060008201518160000160006101000a81548173ffffffffffffffffffffffffffffffffffffffff02191690836c010000000000000000000000009004021790555060208201518160010160006101000a81548173ffffffffffffffffffffffffffffffffffffffff021916908373ffffffffffffffffffffffffffffffffffffffff1602179055506040820151816002019080519060200190611273929190611438565b506060820151816003019080519060200190611290929190611438565b5060808201518160040190805190602001906112ad929190611438565b509050507f97ee6c85d59f1e488a9b7b56e8a61f1174c25e83d56dd48aa1aa0e27aeba383a8260405180826bffffffffffffffffffffffff19166bffffffffffffffffffffffff1916815260200191505060405180910390a1819150509392505050565b60003390806001815401808255809150509060018203906000526020600020016000909192909190916101000a81548173ffffffffffffffffffffffffffffffffffffffff021916908373ffffffffffffffffffffffffffffffffffffffff1602179055505050565b60008181548110151561138957fe5b906000526020600020016000915054906101000a900473ffffffffffffffffffffffffffffffffffffffff1681565b828054600181600116156101000203166002900490600052602060002090601f016020900481019282601f106113f957805160ff1916838001178555611427565b82800160010185558215611427579182015b8281111561142657825182559160200191906001019061140b565b5b50905061143491906114b8565b5090565b828054600181600116156101000203166002900490600052602060002090601f016020900481019282601f1061147957805160ff19168380011785556114a7565b828001600101855582156114a7579182015b828111156114a657825182559160200191906001019061148b565b5b5090506114b491906114b8565b5090565b6114da91905b808211156114d65760008160009055506001016114be565b5090565b9056fea165627a7a72305820276aff9abdcc5aa331f01d24ff6259780ba45ef3549d97a8e967b7b32e5de88e0029",
  "source": "pragma solidity ^0.5.0;\n\nimport \"./TestSite.sol\";\n\ncontract LIT {\n    // This struct represents an experiment to be conducted by LIT\n    struct Experiment {\n        bytes20 id;\n        address creator;\n        string input;\n        string measurement;\n        string code;\n        // Mapping between testsite and the results that they return\n        mapping (address => string) results;\n    }\n\n    // Mapping between capabilities and relevant testsites\n    // TEMPORARY NOT USING THIS ONE IN VERSION 0.1 DUE TO SECURITY ISSUE WITH INLINE ASSEMBLY\n    // mapping (bytes32 => address[]) public capabilityTestSites;\n\n    address[] public testSites;\n\n    // Mapping between experiment and their ID\n    mapping (bytes20 => Experiment) public experiments;\n    // Mapping between address of LIT users and a nonce for creating experiment ID\n    // If nonce is 0, it means that this user has not started an experiment before\n    mapping (address => uint) public userNonce;\n\n    event experimentSubmitted(\n        bytes20 expID\n    );\n    event experimentAssigned(\n        bytes20 expID\n    );\n    event experimentCompleted(\n        bytes20 expID\n    );\n    \n    enum ExperimentType {Created, Submitted, Assigned, Completed}\n\n    function registerTestSite(string memory _capability) public {\n        // capabilityTestSites[stringToBytes32(_capability)].push(msg.sender);\n        testSites.push(msg.sender);\n    }\n    \n    function createExperiment(string memory _input, string memory _measurement, string memory _code) public returns(bytes20 expID) {\n        address userAddr = msg.sender;\n        \n        //Create expID by hashing the sender address with a nonce\n        expID = bytes20(keccak256(abi.encodePacked(userAddr, userNonce[userAddr])));\n        userNonce[userAddr]++;\n        \n        // Create and store an experiment struct\n        experiments[expID] = Experiment(expID, userAddr, _input, _measurement, _code);\n        \n        // Emit an event to acknowledge that the experiemnt has been submitted.\n        emit experimentSubmitted(expID);\n        \n        // Return the expID;\n        return expID;\n    }\n    \n    function conductExperiment(bytes20 _expID) public {\n        // Check if the experiment ID exist\n        require(experiments[_expID].id != 0, \"The specified experiment does not exist.\");\n        // Check if the caller is the owner of the experiment\n        require(msg.sender == experiments[_expID].creator, \"Only the creator of an experiment can start it.\");\n        \n        // Get a reference of the experiment to conduct\n        Experiment storage experiment = experiments[_expID];\n        \n        // Find test sites that can satisfy the experiment input and measurement requirements\n        // TEMPORARY DISABLE MAPPING LOOK UP DUE TO SECURITY ISSUE WITH INLINE ASSEMBLY\n        // address[] memory relevantSites = capabilityTestSites[stringToBytes32(experiment.measurement)];\n\n        // Assign the experiment to all registered testsites for now.\n        address[] memory relevantSites = testSites;\n        \n        // For each relevant test site\n        for (uint i = 0; i < relevantSites.length; i++) {\n            // Assign the address of those testsites to the experiment\n            experiment.results[relevantSites[i]] = \"\";\n            // Call assign experiment from testSite\n            TestSite ts = TestSite(relevantSites[i]);\n            ts.assignExperiment(_expID);\n        }\n        \n        emit experimentAssigned(_expID);\n    }\n    \n    function updateExperiment(bytes20 expID, string memory _result) public {\n        // Check if the expID exist\n        require(experiments[expID].id != 0, \"The specified experiment does not exist.\");\n        \n        // Check if the caller is the assigned testsite\n        // TBA\n        \n        // Update the experiment\n        address testSiteAddr = msg.sender;\n        experiments[expID].results[testSiteAddr] = _result;\n        \n        emit experimentCompleted(expID);\n    }\n    \n    \n    // Utility functions\n    // STOP USING THIS FUNCTION DUE TO INLINE ASSEMPLY ISSUE\n    // function stringToBytes32(string memory source) private returns (bytes32 result) {\n    //     bytes memory tempEmptyStringTest = bytes(source);\n    //     if (tempEmptyStringTest.length == 0) {\n    //         return 0x0;\n    //     }\n    \n    //     assembly {\n    //         result := mload(add(source, 32))\n    //     }\n    // }\n}",
  "sourcePath": "/Users/trannguyen/Documents/CodeProjects/LIT/LIT_core/contracts/LIT.sol",
  "compiler": {
    "name": "solc",
    "version": "0.5.0+commit.1d4f565a.Emscripten.clang"
  },
  "schemaVersion": "3.0.9",
  "updatedAt": "2019-05-29T00:28:34.908Z",
  "devdoc": {
    "methods": {}
  },
  "userdoc": {
    "methods": {}
  }
}