{
  "contractName": "TestSite",
  "abi": [
    {
      "inputs": [
        {
          "name": "_capability",
          "type": "string"
        },
        {
          "name": "_addrLIT",
          "type": "address"
        }
      ],
      "payable": false,
      "stateMutability": "nonpayable",
      "type": "constructor"
    },
    {
      "anonymous": false,
      "inputs": [
        {
          "indexed": false,
          "name": "expID",
          "type": "bytes20"
        },
        {
          "indexed": false,
          "name": "code",
          "type": "string"
        }
      ],
      "name": "experimentStaged",
      "type": "event"
    },
    {
      "constant": false,
      "inputs": [
        {
          "name": "_expID",
          "type": "bytes20"
        }
      ],
      "name": "assignExperiment",
      "outputs": [],
      "payable": false,
      "stateMutability": "nonpayable",
      "type": "function"
    },
    {
      "constant": false,
      "inputs": [
        {
          "name": "_expID",
          "type": "bytes20"
        },
        {
          "name": "_result",
          "type": "string"
        }
      ],
      "name": "updateExperimentResult",
      "outputs": [],
      "payable": false,
      "stateMutability": "nonpayable",
      "type": "function"
    }
  ],
  "bytecode": "0x608060405234801561001057600080fd5b506040516106c63803806106c68339810180604052604081101561003357600080fd5b81019080805164010000000081111561004b57600080fd5b8281019050602081018481111561006157600080fd5b815185600182028301116401000000008211171561007e57600080fd5b505092919060200180519060200190929190505050806000806101000a81548173ffffffffffffffffffffffffffffffffffffffff021916908373ffffffffffffffffffffffffffffffffffffffff1602179055506000809054906101000a900473ffffffffffffffffffffffffffffffffffffffff16600160006101000a81548173ffffffffffffffffffffffffffffffffffffffff021916908373ffffffffffffffffffffffffffffffffffffffff160217905550816003908051906020019061014b9291906102a2565b5033600260006101000a81548173ffffffffffffffffffffffffffffffffffffffff021916908373ffffffffffffffffffffffffffffffffffffffff160217905550600160009054906101000a900473ffffffffffffffffffffffffffffffffffffffff1673ffffffffffffffffffffffffffffffffffffffff1663caba5cdf836040518263ffffffff167c01000000000000000000000000000000000000000000000000000000000281526004018080602001828103825283818151815260200191508051906020019080838360005b8381101561023757808201518184015260208101905061021c565b50505050905090810190601f1680156102645780820380516001836020036101000a031916815260200191505b5092505050600060405180830381600087803b15801561028357600080fd5b505af1158015610297573d6000803e3d6000fd5b505050505050610347565b828054600181600116156101000203166002900490600052602060002090601f016020900481019282601f106102e357805160ff1916838001178555610311565b82800160010185558215610311579182015b828111156103105782518255916020019190600101906102f5565b5b50905061031e9190610322565b5090565b61034491905b80821115610340576000816000905550600101610328565b5090565b90565b610370806103566000396000f3fe60806040526004361061004c576000357c0100000000000000000000000000000000000000000000000000000000900463ffffffff1680635a4c1bf91461005157806362cd885a1461009b575b600080fd5b34801561005d57600080fd5b506100996004803603602081101561007457600080fd5b8101908080356bffffffffffffffffffffffff1916906020019092919050505061017c565b005b3480156100a757600080fd5b5061017a600480360360408110156100be57600080fd5b8101908080356bffffffffffffffffffffffff19169060200190929190803590602001906401000000008111156100f457600080fd5b82018360208201111561010657600080fd5b8035906020019184600183028401116401000000008311171561012857600080fd5b91908080601f016020809104026020016040519081016040528093929190818152602001838380828437600081840152601f19601f82011690508083019250505050505050919291929050505061020c565b005b7e778e9fa0ba34f99199cfee2f120c8c7e2296d3d4fb4d1b4c2556cfa2a6fc118160405180826bffffffffffffffffffffffff19166bffffffffffffffffffffffff1916815260200180602001828103825260088152602001807f6275737920626f780000000000000000000000000000000000000000000000008152506020019250505060405180910390a150565b600160009054906101000a900473ffffffffffffffffffffffffffffffffffffffff1673ffffffffffffffffffffffffffffffffffffffff16633fafc99983836040518363ffffffff167c010000000000000000000000000000000000000000000000000000000002815260040180836bffffffffffffffffffffffff19166bffffffffffffffffffffffff1916815260200180602001828103825283818151815260200191508051906020019080838360005b838110156102db5780820151818401526020810190506102c0565b50505050905090810190601f1680156103085780820380516001836020036101000a031916815260200191505b509350505050600060405180830381600087803b15801561032857600080fd5b505af115801561033c573d6000803e3d6000fd5b50505050505056fea165627a7a723058200190c345f548e79924d80c47aa8d514d91c99e56a1ad0442638d046e21ed85460029",
  "source": "pragma solidity ^0.5.0;\n\nimport \"./LIT.sol\";\n\ncontract TestSite {\n    // Address of LIT core for registration and call back\n    address addrLIT;\n    LIT lit;\n    // Address of the owner of the testsite\n    address addrOwner;\n    // This string describe the capability of a testsite. Will update in the future with more description\n    string capability;\n    \n    // This event is for interacting with the client library on the infrastructure\n    event experimentStaged(bytes20 expID, string code);\n    \n    constructor (string memory _capability, address _addrLIT) public {\n        addrLIT = _addrLIT;\n        lit = LIT(addrLIT);\n        capability = _capability;\n        addrOwner = msg.sender;\n        \n        // Register with LIT\n        lit.registerTestSite(_capability);\n    }\n    \n    function assignExperiment(bytes20 _expID) public{\n        // Get a reference of the LIT to access the experiment record\n        // (bytes20 id, address creator, string memory input, string memory measurement, string memory code) = lit.experiments(_expID);\n        // (, , , , string memory code) = lit.experiments(_expID);\n        // string memory code = \"busy box\";\n        // emit experimentStaged(_expID, code);\n        emit experimentStaged(_expID, \"busy box\");\n    }\n    \n    function updateExperimentResult(bytes20 _expID, string memory _result) public {\n        lit.updateExperiment(_expID, _result);\n    }\n}",
  "sourcePath": "/Users/trannguyen/Documents/CodeProjects/LIT/LIT_core/contracts/TestSite.sol",
  "compiler": {
    "name": "solc",
    "version": "0.5.0+commit.1d4f565a.Emscripten.clang"
  },
  "schemaVersion": "3.0.9",
  "updatedAt": "2019-05-30T02:34:51.113Z",
  "devdoc": {
    "methods": {}
  },
  "userdoc": {
    "methods": {}
  }
}