{
  "contractName": "LIT",
  "abi": [
    {
      "constant": true,
      "inputs": [
        {
          "name": "",
          "type": "bytes20"
        }
      ],
      "name": "experiments",
      "outputs": [
        {
          "name": "id",
          "type": "bytes20"
        },
        {
          "name": "state",
          "type": "uint256"
        },
        {
          "name": "creator",
          "type": "address"
        },
        {
          "name": "homepage",
          "type": "string"
        },
        {
          "name": "relatedArtifact",
          "type": "string"
        },
        {
          "name": "input",
          "type": "string"
        },
        {
          "name": "measurement",
          "type": "string"
        },
        {
          "name": "code",
          "type": "string"
        }
      ],
      "payable": false,
      "stateMutability": "view",
      "type": "function"
    },
    {
      "constant": true,
      "inputs": [
        {
          "name": "",
          "type": "address"
        }
      ],
      "name": "userNonce",
      "outputs": [
        {
          "name": "",
          "type": "uint256"
        }
      ],
      "payable": false,
      "stateMutability": "view",
      "type": "function"
    },
    {
      "constant": true,
      "inputs": [
        {
          "name": "",
          "type": "address"
        },
        {
          "name": "",
          "type": "uint256"
        }
      ],
      "name": "userExperiments",
      "outputs": [
        {
          "name": "",
          "type": "bytes20"
        }
      ],
      "payable": false,
      "stateMutability": "view",
      "type": "function"
    },
    {
      "constant": true,
      "inputs": [
        {
          "name": "",
          "type": "uint256"
        }
      ],
      "name": "testSites",
      "outputs": [
        {
          "name": "",
          "type": "address"
        }
      ],
      "payable": false,
      "stateMutability": "view",
      "type": "function"
    },
    {
      "anonymous": false,
      "inputs": [
        {
          "indexed": false,
          "name": "expID",
          "type": "bytes20"
        }
      ],
      "name": "experimentSubmitted",
      "type": "event"
    },
    {
      "anonymous": false,
      "inputs": [
        {
          "indexed": false,
          "name": "expID",
          "type": "bytes20"
        }
      ],
      "name": "experimentAssigned",
      "type": "event"
    },
    {
      "anonymous": false,
      "inputs": [
        {
          "indexed": false,
          "name": "expID",
          "type": "bytes20"
        }
      ],
      "name": "experimentCompleted",
      "type": "event"
    },
    {
      "constant": false,
      "inputs": [
        {
          "name": "_capability",
          "type": "string"
        }
      ],
      "name": "registerTestSite",
      "outputs": [],
      "payable": false,
      "stateMutability": "nonpayable",
      "type": "function"
    },
    {
      "constant": false,
      "inputs": [
        {
          "name": "_expID",
          "type": "bytes20"
        }
      ],
      "name": "getRespondedTestSites",
      "outputs": [
        {
          "name": "",
          "type": "address[]"
        }
      ],
      "payable": false,
      "stateMutability": "nonpayable",
      "type": "function"
    },
    {
      "constant": false,
      "inputs": [
        {
          "name": "_expID",
          "type": "bytes20"
        },
        {
          "name": "_addrTestSite",
          "type": "address"
        }
      ],
      "name": "getExperimentResults",
      "outputs": [
        {
          "name": "",
          "type": "string"
        }
      ],
      "payable": false,
      "stateMutability": "nonpayable",
      "type": "function"
    },
    {
      "constant": false,
      "inputs": [
        {
          "name": "_homepage",
          "type": "string"
        },
        {
          "name": "_relatedArtifact",
          "type": "string"
        },
        {
          "name": "_input",
          "type": "string"
        },
        {
          "name": "_measurement",
          "type": "string"
        },
        {
          "name": "_code",
          "type": "string"
        }
      ],
      "name": "createExperiment",
      "outputs": [
        {
          "name": "expID",
          "type": "bytes20"
        }
      ],
      "payable": false,
      "stateMutability": "nonpayable",
      "type": "function"
    },
    {
      "constant": false,
      "inputs": [
        {
          "name": "_expID",
          "type": "bytes20"
        }
      ],
      "name": "conductExperiment",
      "outputs": [],
      "payable": false,
      "stateMutability": "nonpayable",
      "type": "function"
    },
    {
      "constant": false,
      "inputs": [
        {
          "name": "_expID",
          "type": "bytes20"
        },
        {
          "name": "_result",
          "type": "string"
        }
      ],
      "name": "updateExperiment",
      "outputs": [],
      "payable": false,
      "stateMutability": "nonpayable",
      "type": "function"
    }
  ],
  "bytecode": "0x608060405234801561001057600080fd5b50611ecf806100206000396000f3fe6080604052600436106100a4576000357c0100000000000000000000000000000000000000000000000000000000900463ffffffff16806306c2fab6146100a95780630a5015a81461037b57806325e0c33a146103c55780632e04b8e7146104a85780633fafc9991461050d578063b9c48db3146105ee578063caba5cdf1461068d578063d187001814610755578063d65a6cd3146107e2578063ef4990241461085d575b600080fd5b3480156100b557600080fd5b506100f1600480360360208110156100cc57600080fd5b8101908080356bffffffffffffffffffffffff19169060200190929190505050610bb3565b60405180896bffffffffffffffffffffffff19166bffffffffffffffffffffffff191681526020018881526020018773ffffffffffffffffffffffffffffffffffffffff1673ffffffffffffffffffffffffffffffffffffffff168152602001806020018060200180602001806020018060200186810386528b818151815260200191508051906020019080838360005b8381101561019d578082015181840152602081019050610182565b50505050905090810190601f1680156101ca5780820380516001836020036101000a031916815260200191505b5086810385528a818151815260200191508051906020019080838360005b838110156102035780820151818401526020810190506101e8565b50505050905090810190601f1680156102305780820380516001836020036101000a031916815260200191505b50868103845289818151815260200191508051906020019080838360005b8381101561026957808201518184015260208101905061024e565b50505050905090810190601f1680156102965780820380516001836020036101000a031916815260200191505b50868103835288818151815260200191508051906020019080838360005b838110156102cf5780820151818401526020810190506102b4565b50505050905090810190601f1680156102fc5780820380516001836020036101000a031916815260200191505b50868103825287818151815260200191508051906020019080838360005b8381101561033557808201518184015260208101905061031a565b50505050905090810190601f1680156103625780820380516001836020036101000a031916815260200191505b509d505050505050505050505050505060405180910390f35b34801561038757600080fd5b506103c36004803603602081101561039e57600080fd5b8101908080356bffffffffffffffffffffffff19169060200190929190505050610f2c565b005b3480156103d157600080fd5b5061042d600480360360408110156103e857600080fd5b8101908080356bffffffffffffffffffffffff19169060200190929190803573ffffffffffffffffffffffffffffffffffffffff169060200190929190505050611394565b6040518080602001828103825283818151815260200191508051906020019080838360005b8381101561046d578082015181840152602081019050610452565b50505050905090810190601f16801561049a5780820380516001836020036101000a031916815260200191505b509250505060405180910390f35b3480156104b457600080fd5b506104f7600480360360208110156104cb57600080fd5b81019080803573ffffffffffffffffffffffffffffffffffffffff1690602001909291905050506114a8565b6040518082815260200191505060405180910390f35b34801561051957600080fd5b506105ec6004803603604081101561053057600080fd5b8101908080356bffffffffffffffffffffffff191690602001909291908035906020019064010000000081111561056657600080fd5b82018360208201111561057857600080fd5b8035906020019184600183028401116401000000008311171561059a57600080fd5b91908080601f016020809104026020016040519081016040528093929190818152602001838380828437600081840152601f19601f8201169050808301925050505050505091929192905050506114c0565b005b3480156105fa57600080fd5b506106366004803603602081101561061157600080fd5b8101908080356bffffffffffffffffffffffff191690602001909291905050506116e9565b6040518080602001828103825283818151815260200191508051906020019060200280838360005b8381101561067957808201518184015260208101905061065e565b505050509050019250505060405180910390f35b34801561069957600080fd5b50610753600480360360208110156106b057600080fd5b81019080803590602001906401000000008111156106cd57600080fd5b8201836020820111156106df57600080fd5b8035906020019184600183028401116401000000008311171561070157600080fd5b91908080601f016020809104026020016040519081016040528093929190818152602001838380828437600081840152601f19601f8201169050808301925050505050505091929192905050506117b0565b005b34801561076157600080fd5b506107ae6004803603604081101561077857600080fd5b81019080803573ffffffffffffffffffffffffffffffffffffffff16906020019092919080359060200190929190505050611819565b60405180826bffffffffffffffffffffffff19166bffffffffffffffffffffffff1916815260200191505060405180910390f35b3480156107ee57600080fd5b5061081b6004803603602081101561080557600080fd5b810190808035906020019092919050505061185f565b604051808273ffffffffffffffffffffffffffffffffffffffff1673ffffffffffffffffffffffffffffffffffffffff16815260200191505060405180910390f35b34801561086957600080fd5b50610b7f600480360360a081101561088057600080fd5b810190808035906020019064010000000081111561089d57600080fd5b8201836020820111156108af57600080fd5b803590602001918460018302840111640100000000831117156108d157600080fd5b91908080601f016020809104026020016040519081016040528093929190818152602001838380828437600081840152601f19601f8201169050808301925050505050505091929192908035906020019064010000000081111561093457600080fd5b82018360208201111561094657600080fd5b8035906020019184600183028401116401000000008311171561096857600080fd5b91908080601f016020809104026020016040519081016040528093929190818152602001838380828437600081840152601f19601f820116905080830192505050505050509192919290803590602001906401000000008111156109cb57600080fd5b8201836020820111156109dd57600080fd5b803590602001918460018302840111640100000000831117156109ff57600080fd5b91908080601f016020809104026020016040519081016040528093929190818152602001838380828437600081840152601f19601f82011690508083019250505050505050919291929080359060200190640100000000811115610a6257600080fd5b820183602082011115610a7457600080fd5b80359060200191846001830284011164010000000083111715610a9657600080fd5b91908080601f016020809104026020016040519081016040528093929190818152602001838380828437600081840152601f19601f82011690508083019250505050505050919291929080359060200190640100000000811115610af957600080fd5b820183602082011115610b0b57600080fd5b80359060200191846001830284011164010000000083111715610b2d57600080fd5b91908080601f016020809104026020016040519081016040528093929190818152602001838380828437600081840152601f19601f82011690508083019250505050505050919291929050505061189d565b60405180826bffffffffffffffffffffffff19166bffffffffffffffffffffffff1916815260200191505060405180910390f35b60016020528060005260406000206000915090508060000160009054906101000a90046c0100000000000000000000000002908060010154908060020160009054906101000a900473ffffffffffffffffffffffffffffffffffffffff1690806003018054600181600116156101000203166002900480601f016020809104026020016040519081016040528092919081815260200182805460018160011615610100020316600290048015610caa5780601f10610c7f57610100808354040283529160200191610caa565b820191906000526020600020905b815481529060010190602001808311610c8d57829003601f168201915b505050505090806004018054600181600116156101000203166002900480601f016020809104026020016040519081016040528092919081815260200182805460018160011615610100020316600290048015610d485780601f10610d1d57610100808354040283529160200191610d48565b820191906000526020600020905b815481529060010190602001808311610d2b57829003601f168201915b505050505090806005018054600181600116156101000203166002900480601f016020809104026020016040519081016040528092919081815260200182805460018160011615610100020316600290048015610de65780601f10610dbb57610100808354040283529160200191610de6565b820191906000526020600020905b815481529060010190602001808311610dc957829003601f168201915b505050505090806006018054600181600116156101000203166002900480601f016020809104026020016040519081016040528092919081815260200182805460018160011615610100020316600290048015610e845780601f10610e5957610100808354040283529160200191610e84565b820191906000526020600020905b815481529060010190602001808311610e6757829003601f168201915b505050505090806007018054600181600116156101000203166002900480601f016020809104026020016040519081016040528092919081815260200182805460018160011615610100020316600290048015610f225780601f10610ef757610100808354040283529160200191610f22565b820191906000526020600020905b815481529060010190602001808311610f0557829003601f168201915b5050505050905088565b60006c010000000000000000000000000260016000836bffffffffffffffffffffffff19166bffffffffffffffffffffffff1916815260200190815260200160002060000160009054906101000a90046c01000000000000000000000000026bffffffffffffffffffffffff191614151515611036576040517f08c379a00000000000000000000000000000000000000000000000000000000081526004018080602001828103825260288152602001807f54686520737065636966696564206578706572696d656e7420646f6573206e6f81526020017f742065786973742e00000000000000000000000000000000000000000000000081525060400191505060405180910390fd5b600060016000836bffffffffffffffffffffffff19166bffffffffffffffffffffffff191681526020019081526020016000209050606060008054806020026020016040519081016040528092919081815260200182805480156110ef57602002820191906000526020600020905b8160009054906101000a900473ffffffffffffffffffffffffffffffffffffffff1673ffffffffffffffffffffffffffffffffffffffff16815260200190600101908083116110a5575b5050505050905060008090505b8151811015611300576020604051908101604052806000815250836009016000848481518110151561112a57fe5b9060200190602002015173ffffffffffffffffffffffffffffffffffffffff1673ffffffffffffffffffffffffffffffffffffffff1681526020019081526020016000209080519060200190611181929190611cb1565b506000828281518110151561119257fe5b9060200190602002015190508073ffffffffffffffffffffffffffffffffffffffff16635a4c1bf9866040518263ffffffff167c010000000000000000000000000000000000000000000000000000000002815260040180826bffffffffffffffffffffffff19166bffffffffffffffffffffffff19168152602001915050600060405180830381600087803b15801561122b57600080fd5b505af115801561123f573d6000803e3d6000fd5b5050505060016000866bffffffffffffffffffffffff19166bffffffffffffffffffffffff19168152602001908152602001600020600801838381518110151561128557fe5b9060200190602002015190806001815401808255809150509060018203906000526020600020016000909192909190916101000a81548173ffffffffffffffffffffffffffffffffffffffff021916908373ffffffffffffffffffffffffffffffffffffffff160217905550505080806001019150506110fc565b506001806000856bffffffffffffffffffffffff19166bffffffffffffffffffffffff19168152602001908152602001600020600101819055507fd37bf4c6ff16181e63330b7ab02e789b60f8874a16f76a8384e436a2b67c9f048360405180826bffffffffffffffffffffffff19166bffffffffffffffffffffffff1916815260200191505060405180910390a1505050565b606060016000846bffffffffffffffffffffffff19166bffffffffffffffffffffffff1916815260200190815260200160002060090160008373ffffffffffffffffffffffffffffffffffffffff1673ffffffffffffffffffffffffffffffffffffffff1681526020019081526020016000208054600181600116156101000203166002900480601f01602080910402602001604051908101604052809291908181526020018280546001816001161561010002031660029004801561149b5780601f106114705761010080835404028352916020019161149b565b820191906000526020600020905b81548152906001019060200180831161147e57829003601f168201915b5050505050905092915050565b60026020528060005260406000206000915090505481565b60006c010000000000000000000000000260016000846bffffffffffffffffffffffff19166bffffffffffffffffffffffff1916815260200190815260200160002060000160009054906101000a90046c01000000000000000000000000026bffffffffffffffffffffffff1916141515156115ca576040517f08c379a00000000000000000000000000000000000000000000000000000000081526004018080602001828103825260288152602001807f54686520737065636966696564206578706572696d656e7420646f6573206e6f81526020017f742065786973742e00000000000000000000000000000000000000000000000081525060400191505060405180910390fd5b60003390508160016000856bffffffffffffffffffffffff19166bffffffffffffffffffffffff1916815260200190815260200160002060090160008373ffffffffffffffffffffffffffffffffffffffff1673ffffffffffffffffffffffffffffffffffffffff1681526020019081526020016000209080519060200190611654929190611cb1565b50600260016000856bffffffffffffffffffffffff19166bffffffffffffffffffffffff19168152602001908152602001600020600101819055507f7d4d22b0c1ac2d7fa12dd52a33e0d6f628a20cd57ec455553d5dba2a3f7ef25a8360405180826bffffffffffffffffffffffff19166bffffffffffffffffffffffff1916815260200191505060405180910390a1505050565b60608060016000846bffffffffffffffffffffffff19166bffffffffffffffffffffffff191681526020019081526020016000206008018054806020026020016040519081016040528092919081815260200182805480156117a057602002820191906000526020600020905b8160009054906101000a900473ffffffffffffffffffffffffffffffffffffffff1673ffffffffffffffffffffffffffffffffffffffff1681526020019060010190808311611756575b5050505050905080915050919050565b60003390806001815401808255809150509060018203906000526020600020016000909192909190916101000a81548173ffffffffffffffffffffffffffffffffffffffff021916908373ffffffffffffffffffffffffffffffffffffffff1602179055505050565b60036020528160005260406000208181548110151561183457fe5b906000526020600020016000915091509054906101000a90046c010000000000000000000000000281565b60008181548110151561186e57fe5b906000526020600020016000915054906101000a900473ffffffffffffffffffffffffffffffffffffffff1681565b60008033905080600260008373ffffffffffffffffffffffffffffffffffffffff1673ffffffffffffffffffffffffffffffffffffffff16815260200190815260200160002054604051602001808373ffffffffffffffffffffffffffffffffffffffff1673ffffffffffffffffffffffffffffffffffffffff166c0100000000000000000000000002815260140182815260200192505050604051602081830303815290604052805190602001209150600260008273ffffffffffffffffffffffffffffffffffffffff1673ffffffffffffffffffffffffffffffffffffffff16815260200190815260200160002060008154809291906001019190505550600360008273ffffffffffffffffffffffffffffffffffffffff1673ffffffffffffffffffffffffffffffffffffffff1681526020019081526020016000208290806001815401808255809150509060018203906000526020600020016000909192909190916101000a81548173ffffffffffffffffffffffffffffffffffffffff02191690836c01000000000000000000000000900402179055505061012060405190810160405280836bffffffffffffffffffffffff19168152602001600081526020018273ffffffffffffffffffffffffffffffffffffffff1681526020018881526020018781526020018681526020018581526020018481526020016000604051908082528060200260200182016040528015611acd5781602001602082028038833980820191505090505b5081525060016000846bffffffffffffffffffffffff19166bffffffffffffffffffffffff1916815260200190815260200160002060008201518160000160006101000a81548173ffffffffffffffffffffffffffffffffffffffff02191690836c01000000000000000000000000900402179055506020820151816001015560408201518160020160006101000a81548173ffffffffffffffffffffffffffffffffffffffff021916908373ffffffffffffffffffffffffffffffffffffffff1602179055506060820151816003019080519060200190611bb0929190611d31565b506080820151816004019080519060200190611bcd929190611d31565b5060a0820151816005019080519060200190611bea929190611d31565b5060c0820151816006019080519060200190611c07929190611d31565b5060e0820151816007019080519060200190611c24929190611d31565b50610100820151816008019080519060200190611c42929190611db1565b509050507f97ee6c85d59f1e488a9b7b56e8a61f1174c25e83d56dd48aa1aa0e27aeba383a8260405180826bffffffffffffffffffffffff19166bffffffffffffffffffffffff1916815260200191505060405180910390a1611ca482610f2c565b8191505095945050505050565b828054600181600116156101000203166002900490600052602060002090601f016020900481019282601f10611cf257805160ff1916838001178555611d20565b82800160010185558215611d20579182015b82811115611d1f578251825591602001919060010190611d04565b5b509050611d2d9190611e3b565b5090565b828054600181600116156101000203166002900490600052602060002090601f016020900481019282601f10611d7257805160ff1916838001178555611da0565b82800160010185558215611da0579182015b82811115611d9f578251825591602001919060010190611d84565b5b509050611dad9190611e3b565b5090565b828054828255906000526020600020908101928215611e2a579160200282015b82811115611e295782518260006101000a81548173ffffffffffffffffffffffffffffffffffffffff021916908373ffffffffffffffffffffffffffffffffffffffff16021790555091602001919060010190611dd1565b5b509050611e379190611e60565b5090565b611e5d91905b80821115611e59576000816000905550600101611e41565b5090565b90565b611ea091905b80821115611e9c57600081816101000a81549073ffffffffffffffffffffffffffffffffffffffff021916905550600101611e66565b5090565b9056fea165627a7a72305820931e05a5d369dcea86493dce43bb64338f28f088b3869c53f0a85ac04a5781b40029",
  "source": "pragma solidity ^0.5.0;\n\ncontract TestSite {\n    // Address of LIT core for registration and call back\n    address addrLIT;\n    LIT lit;\n    // Address of the owner of the testsite\n    address addrOwner;\n    // This string describe the capability of a testsite. Will update in the future with more description\n    string capability;\n    \n    // This event is for interacting with the client library on the infrastructure\n    event experimentStaged(bytes20 expID, string code);\n    \n    constructor (string memory _capability, address _addrLIT) public {\n        addrLIT = _addrLIT;\n        lit = LIT(addrLIT);\n        capability = _capability;\n        addrOwner = msg.sender;\n        \n        // Register with LIT\n        lit.registerTestSite(_capability);\n    }\n    \n    function assignExperiment(bytes20 _expID) public{\n        // Get a reference of the LIT to access the experiment record\n        // (bytes20 id, address creator, string memory input, string memory measurement, string memory code) = lit.experiments(_expID);\n        (, , , , , , , string memory code) = lit.experiments(_expID);\n        // string memory code = \"busy box\";\n        // emit experimentStaged(_expID, code);\n        emit experimentStaged(_expID, code);\n    }\n    \n    function updateExperimentResult(bytes20 _expID, string memory _result) public {\n        lit.updateExperiment(_expID, _result);\n    }\n}\n\ncontract LIT {\n    // This struct represents an experiment to be conducted by LIT\n    struct Experiment {\n        bytes20 id;\n        uint state;\n        address creator;\n        string homepage;\n        string relatedArtifact;\n        string input;\n        string measurement;\n        string code;\n        // Mapping between testsite and the results that they return\n        address[] respondedTestSites;\n        mapping (address => string) results;\n    }\n\n    // Mapping between capabilities and relevant testsites\n    // TEMPORARY NOT USING THIS ONE IN VERSION 0.1 DUE TO SECURITY ISSUE WITH INLINE ASSEMBLY\n    // mapping (bytes32 => address[]) public capabilityTestSites;\n\n    address[] public testSites;\n\n    // Mapping between experiment and their ID\n    mapping (bytes20 => Experiment) public experiments;\n    // Mapping between address of LIT users and a nonce for creating experiment ID\n    // If nonce is 0, it means that this user has not started an experiment before\n    mapping (address => uint) public userNonce;\n\n    mapping(address => bytes20[]) public userExperiments;\n\n    event experimentSubmitted(\n        bytes20 expID\n    );\n    event experimentAssigned(\n        bytes20 expID\n    );\n    event experimentCompleted(\n        bytes20 expID\n    );\n    \n    enum ExperimentType {Created, Submitted, Assigned, Completed}\n\n    function registerTestSite(string memory _capability) public {\n        // capabilityTestSites[stringToBytes32(_capability)].push(msg.sender);\n        testSites.push(msg.sender);\n    }\n    \n    function getRespondedTestSites(bytes20 _expID) public returns (address[] memory) {\n        address[] memory testsites = experiments[_expID].respondedTestSites;\n        return testsites;\n    }\n    \n    function getExperimentResults(bytes20 _expID, address _addrTestSite) public returns (string memory)  {\n        return experiments[_expID].results[_addrTestSite];\n    }\n    \n    function createExperiment(string memory _homepage, string memory _relatedArtifact, string memory _input, string memory _measurement, string memory _code) public returns(bytes20 expID) {\n        address userAddr = msg.sender;\n        \n        //Create expID by hashing the sender address with a nonce\n        expID = bytes20(keccak256(abi.encodePacked(userAddr, userNonce[userAddr])));\n        userNonce[userAddr]++;\n        userExperiments[userAddr].push(expID);\n        \n        // Create and store an experiment struct\n        experiments[expID] = Experiment(expID, 0, userAddr, _homepage, _relatedArtifact, _input, _measurement, _code, new address[](0));\n        \n        // Emit an event to acknowledge that the experiemnt has been submitted.\n        emit experimentSubmitted(expID);\n        \n        // FOR SIMPLICITY, VERSION 0.1 CALL CONDUCT EXPERIMENT DIRECTLY.\n        conductExperiment(expID);\n        // Return the expID;\n        return expID;\n    }\n    \n    function conductExperiment(bytes20 _expID) public {\n        // Check if the experiment ID exist\n        require(experiments[_expID].id != 0, \"The specified experiment does not exist.\");\n        // Check if the caller is the owner of the experiment\n        // require(msg.sender == experiments[_expID].creator, \"Only the creator of an experiment can start it.\");\n        \n        // Get a reference of the experiment to conduct\n        Experiment storage experiment = experiments[_expID];\n        \n        // Find test sites that can satisfy the experiment input and measurement requirements\n        // TEMPORARY DISABLE MAPPING LOOK UP DUE TO SECURITY ISSUE WITH INLINE ASSEMBLY\n        // address[] memory relevantSites = capabilityTestSites[stringToBytes32(experiment.measurement)];\n\n        // Assign the experiment to all registered testsites for now.\n        address[] memory relevantSites = testSites;\n        \n        // For each relevant test site\n        for (uint i = 0; i < relevantSites.length; i++) {\n            // Assign the address of those testsites to the experiment\n            experiment.results[relevantSites[i]] = \"\";\n            // Call assign experiment from testSite\n            TestSite ts = TestSite(relevantSites[i]);\n            ts.assignExperiment(_expID);\n            experiments[_expID].respondedTestSites.push(relevantSites[i]);\n        }\n        \n        // Update the state of experiment\n        experiments[_expID].state = 1;\n        emit experimentAssigned(_expID);\n    }\n    \n    function updateExperiment(bytes20 _expID, string memory _result) public {\n        // VERSION 0.1 DOES NOT HANDLE EXPERIMENT FAILURE. CODE WILL BE UPDATED WITH ALTERNATIVE SCENARIOS IN LATER VERSIONS\n\n        // Check if the expID exist\n        require(experiments[_expID].id != 0, \"The specified experiment does not exist.\");\n        \n        // Check if the caller is the assigned testsite\n        // TBA\n        \n        // Update the experiment\n        address testSiteAddr = msg.sender;\n        experiments[_expID].results[testSiteAddr] = _result;\n        experiments[_expID].state = 2;\n        \n        emit experimentCompleted(_expID);\n    }\n    \n    \n    // Utility functions\n    // STOP USING THIS FUNCTION DUE TO INLINE ASSEMPLY ISSUE\n    // function stringToBytes32(string memory source) private returns (bytes32 result) {\n    //     bytes memory tempEmptyStringTest = bytes(source);\n    //     if (tempEmptyStringTest.length == 0) {\n    //         return 0x0;\n    //     }\n    \n    //     assembly {\n    //         result := mload(add(source, 32))\n    //     }\n    // }\n}",
  "sourcePath": "/Users/trannguyen/Documents/CodeProjects/LIT/LIT_core/contracts/TestSite.sol",
  "compiler": {
    "name": "solc",
    "version": "0.5.0+commit.1d4f565a.Emscripten.clang"
  },
  "schemaVersion": "3.0.9",
  "updatedAt": "2019-05-30T11:52:42.993Z",
  "devdoc": {
    "methods": {}
  },
  "userdoc": {
    "methods": {}
  }
}